{
  "_format": "hh-sol-artifact-1",
  "contractName": "WavePortal",
  "sourceName": "contracts/WavePortal.sol",
  "abi": [
    {
      "inputs": [],
      "stateMutability": "nonpayable",
      "type": "constructor"
    },
    {
      "anonymous": false,
      "inputs": [
        {
          "indexed": true,
          "internalType": "address",
          "name": "from",
          "type": "address"
        },
        {
          "indexed": false,
          "internalType": "string",
          "name": "message",
          "type": "string"
        },
        {
          "indexed": false,
          "internalType": "uint256",
          "name": "timestamp",
          "type": "uint256"
        }
      ],
      "name": "NewWave",
      "type": "event"
    },
    {
      "inputs": [
        {
          "internalType": "uint256",
          "name": "",
          "type": "uint256"
        }
      ],
      "name": "addresses",
      "outputs": [
        {
          "internalType": "address",
          "name": "",
          "type": "address"
        }
      ],
      "stateMutability": "view",
      "type": "function"
    },
    {
      "inputs": [],
      "name": "getAddresses",
      "outputs": [
        {
          "internalType": "address[]",
          "name": "",
          "type": "address[]"
        }
      ],
      "stateMutability": "view",
      "type": "function"
    },
    {
      "inputs": [],
      "name": "getAllWaves",
      "outputs": [
        {
          "components": [
            {
              "internalType": "address",
              "name": "waver",
              "type": "address"
            },
            {
              "internalType": "string",
              "name": "message",
              "type": "string"
            },
            {
              "internalType": "uint256",
              "name": "timestamp",
              "type": "uint256"
            }
          ],
          "internalType": "struct WavePortal.Wave[]",
          "name": "",
          "type": "tuple[]"
        }
      ],
      "stateMutability": "view",
      "type": "function"
    },
    {
      "inputs": [],
      "name": "getTotalWaves",
      "outputs": [
        {
          "internalType": "uint256",
          "name": "",
          "type": "uint256"
        }
      ],
      "stateMutability": "view",
      "type": "function"
    },
    {
      "inputs": [],
      "name": "userAddress",
      "outputs": [
        {
          "internalType": "address",
          "name": "",
          "type": "address"
        }
      ],
      "stateMutability": "view",
      "type": "function"
    },
    {
      "inputs": [
        {
          "internalType": "string",
          "name": "_message",
          "type": "string"
        }
      ],
      "name": "wave",
      "outputs": [],
      "stateMutability": "nonpayable",
      "type": "function"
    }
  ],
  "bytecode": "0x60806040523480156200001157600080fd5b506200005d6040518060400160405280601781526020017f49276d20796f757220736d61727420636f6e74726163740000000000000000008152506200006360201b620005f81760201c565b620001f7565b62000103816040516024016200007a919062000170565b6040516020818303038152906040527f41304fac000000000000000000000000000000000000000000000000000000007bffffffffffffffffffffffffffffffffffffffffffffffffffffffff19166020820180517bffffffffffffffffffffffffffffffffffffffffffffffffffffffff83818316178352505050506200010660201b60201c565b50565b60008151905060006a636f6e736f6c652e6c6f679050602083016000808483855afa5050505050565b60006200013c8262000194565b6200014881856200019f565b93506200015a818560208601620001b0565b6200016581620001e6565b840191505092915050565b600060208201905081810360008301526200018c81846200012f565b905092915050565b600081519050919050565b600082825260208201905092915050565b60005b83811015620001d0578082015181840152602081019050620001b3565b83811115620001e0576000848401525b50505050565b6000601f19601f8301169050919050565b610fa480620002076000396000f3fe608060405234801561001057600080fd5b50600436106100625760003560e01c8063449d46c0146100675780639a2cdc0814610083578063a39fac12146100a1578063bd43a908146100bf578063e4128fb3146100dd578063edf26d9b146100fb575b600080fd5b610081600480360381019061007c9190610915565b61012b565b005b61008b610369565b6040516100989190610c72565b60405180910390f35b6100a96103b4565b6040516100b69190610b97565b60405180910390f35b6100c7610442565b6040516100d49190610bb9565b60405180910390f35b6100e5610593565b6040516100f29190610b7c565b60405180910390f35b61011560048036038101906101109190610956565b6105b9565b6040516101229190610b7c565b60405180910390f35b600160008082825461013d9190610d82565b9250508190555033600360006101000a81548173ffffffffffffffffffffffffffffffffffffffff021916908373ffffffffffffffffffffffffffffffffffffffff1602179055506002600360009054906101000a900473ffffffffffffffffffffffffffffffffffffffff169080600181540180825580915050600190039060005260206000200160009091909190916101000a81548173ffffffffffffffffffffffffffffffffffffffff021916908373ffffffffffffffffffffffffffffffffffffffff16021790555061024a6040518060400160405280600d81526020017f25732068617320776176656421000000000000000000000000000000000000008152503383610691565b600160405180606001604052803373ffffffffffffffffffffffffffffffffffffffff16815260200183815260200142815250908060018154018082558091505060019003906000526020600020906003020160009091909190915060008201518160000160006101000a81548173ffffffffffffffffffffffffffffffffffffffff021916908373ffffffffffffffffffffffffffffffffffffffff16021790555060208201518160010190805190602001906103099291906107f5565b506040820151816002015550503373ffffffffffffffffffffffffffffffffffffffff167f6728ef66814a55b797863bf8ffcd954b19cbca4ed4f0e6cf04c980705fd82c36824260405161035e929190610c42565b60405180910390a250565b60006103ac6040518060400160405280601781526020017f5765206861766520256420746f74616c20776176657321000000000000000000815250600054610730565b600054905090565b6060600280548060200260200160405190810160405280929190818152602001828054801561043857602002820191906000526020600020905b8160009054906101000a900473ffffffffffffffffffffffffffffffffffffffff1673ffffffffffffffffffffffffffffffffffffffff16815260200190600101908083116103ee575b5050505050905090565b60606001805480602002602001604051908101604052809291908181526020016000905b8282101561058a57838290600052602060002090600302016040518060600160405290816000820160009054906101000a900473ffffffffffffffffffffffffffffffffffffffff1673ffffffffffffffffffffffffffffffffffffffff1673ffffffffffffffffffffffffffffffffffffffff1681526020016001820180546104ef90610e56565b80601f016020809104026020016040519081016040528092919081815260200182805461051b90610e56565b80156105685780601f1061053d57610100808354040283529160200191610568565b820191906000526020600020905b81548152906001019060200180831161054b57829003601f168201915b5050505050815260200160028201548152505081526020019060010190610466565b50505050905090565b600360009054906101000a900473ffffffffffffffffffffffffffffffffffffffff1681565b600281815481106105c957600080fd5b906000526020600020016000915054906101000a900473ffffffffffffffffffffffffffffffffffffffff1681565b61068e8160405160240161060c9190610bdb565b6040516020818303038152906040527f41304fac000000000000000000000000000000000000000000000000000000007bffffffffffffffffffffffffffffffffffffffffffffffffffffffff19166020820180517bffffffffffffffffffffffffffffffffffffffffffffffffffffffff83818316178352505050506107cc565b50565b61072b8383836040516024016106a993929190610bfd565b6040516020818303038152906040527fe0e9ad4f000000000000000000000000000000000000000000000000000000007bffffffffffffffffffffffffffffffffffffffffffffffffffffffff19166020820180517bffffffffffffffffffffffffffffffffffffffffffffffffffffffff83818316178352505050506107cc565b505050565b6107c88282604051602401610746929190610c42565b6040516020818303038152906040527f9710a9d0000000000000000000000000000000000000000000000000000000007bffffffffffffffffffffffffffffffffffffffffffffffffffffffff19166020820180517bffffffffffffffffffffffffffffffffffffffffffffffffffffffff83818316178352505050506107cc565b5050565b60008151905060006a636f6e736f6c652e6c6f679050602083016000808483855afa5050505050565b82805461080190610e56565b90600052602060002090601f016020900481019282610823576000855561086a565b82601f1061083c57805160ff191683800117855561086a565b8280016001018555821561086a579182015b8281111561086957825182559160200191906001019061084e565b5b509050610877919061087b565b5090565b5b8082111561089457600081600090555060010161087c565b5090565b60006108ab6108a684610cb2565b610c8d565b9050828152602081018484840111156108c357600080fd5b6108ce848285610e14565b509392505050565b600082601f8301126108e757600080fd5b81356108f7848260208601610898565b91505092915050565b60008135905061090f81610f57565b92915050565b60006020828403121561092757600080fd5b600082013567ffffffffffffffff81111561094157600080fd5b61094d848285016108d6565b91505092915050565b60006020828403121561096857600080fd5b600061097684828501610900565b91505092915050565b600061098b83836109ab565b60208301905092915050565b60006109a38383610b0e565b905092915050565b6109b481610dd8565b82525050565b6109c381610dd8565b82525050565b60006109d482610d03565b6109de8185610d3e565b93506109e983610ce3565b8060005b83811015610a1a578151610a01888261097f565b9750610a0c83610d24565b9250506001810190506109ed565b5085935050505092915050565b6000610a3282610d0e565b610a3c8185610d4f565b935083602082028501610a4e85610cf3565b8060005b85811015610a8a5784840389528151610a6b8582610997565b9450610a7683610d31565b925060208a01995050600181019050610a52565b50829750879550505050505092915050565b6000610aa782610d19565b610ab18185610d60565b9350610ac1818560208601610e23565b610aca81610f46565b840191505092915050565b6000610ae082610d19565b610aea8185610d71565b9350610afa818560208601610e23565b610b0381610f46565b840191505092915050565b6000606083016000830151610b2660008601826109ab565b5060208301518482036020860152610b3e8282610a9c565b9150506040830151610b536040860182610b5e565b508091505092915050565b610b6781610e0a565b82525050565b610b7681610e0a565b82525050565b6000602082019050610b9160008301846109ba565b92915050565b60006020820190508181036000830152610bb181846109c9565b905092915050565b60006020820190508181036000830152610bd38184610a27565b905092915050565b60006020820190508181036000830152610bf58184610ad5565b905092915050565b60006060820190508181036000830152610c178186610ad5565b9050610c2660208301856109ba565b8181036040830152610c388184610ad5565b9050949350505050565b60006040820190508181036000830152610c5c8185610ad5565b9050610c6b6020830184610b6d565b9392505050565b6000602082019050610c876000830184610b6d565b92915050565b6000610c97610ca8565b9050610ca38282610e88565b919050565b6000604051905090565b600067ffffffffffffffff821115610ccd57610ccc610f17565b5b610cd682610f46565b9050602081019050919050565b6000819050602082019050919050565b6000819050602082019050919050565b600081519050919050565b600081519050919050565b600081519050919050565b6000602082019050919050565b6000602082019050919050565b600082825260208201905092915050565b600082825260208201905092915050565b600082825260208201905092915050565b600082825260208201905092915050565b6000610d8d82610e0a565b9150610d9883610e0a565b9250827fffffffffffffffffffffffffffffffffffffffffffffffffffffffffffffffff03821115610dcd57610dcc610eb9565b5b828201905092915050565b6000610de382610dea565b9050919050565b600073ffffffffffffffffffffffffffffffffffffffff82169050919050565b6000819050919050565b82818337600083830152505050565b60005b83811015610e41578082015181840152602081019050610e26565b83811115610e50576000848401525b50505050565b60006002820490506001821680610e6e57607f821691505b60208210811415610e8257610e81610ee8565b5b50919050565b610e9182610f46565b810181811067ffffffffffffffff82111715610eb057610eaf610f17565b5b80604052505050565b7f4e487b7100000000000000000000000000000000000000000000000000000000600052601160045260246000fd5b7f4e487b7100000000000000000000000000000000000000000000000000000000600052602260045260246000fd5b7f4e487b7100000000000000000000000000000000000000000000000000000000600052604160045260246000fd5b6000601f19601f8301169050919050565b610f6081610e0a565b8114610f6b57600080fd5b5056fea264697066735822122048e142f29d5274a79833770bbfe83ad523de05922b1d5bc037d0eeaff7d38de164736f6c63430008040033",
  "linkReferences": {},
  "deployedLinkReferences": {}
}